{
    "_format": "hh-sol-artifact-1",
    "contractName": "WavePortal",
    "sourceName": "contracts/WavePortal.sol",
    "abi": [
        {
            "inputs": [],
            "stateMutability": "nonpayable",
            "type": "constructor"
        },
        {
            "inputs": [],
            "name": "getLastToWave",
            "outputs": [
                {
                    "internalType": "address",
                    "name": "",
                    "type": "address"
                }
            ],
            "stateMutability": "view",
            "type": "function"
        },
        {
            "inputs": [],
            "name": "getTotalWaves",
            "outputs": [
                {
                    "internalType": "uint256",
                    "name": "",
                    "type": "uint256"
                }
            ],
            "stateMutability": "view",
            "type": "function"
        },
        {
            "inputs": [],
            "name": "wave",
            "outputs": [],
            "stateMutability": "nonpayable",
            "type": "function"
        }
    ],
    "bytecode": "0x608060405234801561001057600080fd5b5061003c6040518060600160405280603681526020016108306036913961004160201b6101fd1760201c565b6101c4565b6100dd816040516024016100559190610142565b6040516020818303038152906040527f41304fac000000000000000000000000000000000000000000000000000000007bffffffffffffffffffffffffffffffffffffffffffffffffffffffff19166020820180517bffffffffffffffffffffffffffffffffffffffffffffffffffffffff83818316178352505050506100e060201b60201c565b50565b60008151905060006a636f6e736f6c652e6c6f679050602083016000808483855afa5050505050565b600061011482610164565b61011e818561016f565b935061012e818560208601610180565b610137816101b3565b840191505092915050565b6000602082019050818103600083015261015c8184610109565b905092915050565b600081519050919050565b600082825260208201905092915050565b60005b8381101561019e578082015181840152602081019050610183565b838111156101ad576000848401525b50505050565b6000601f19601f8301169050919050565b61065d806101d36000396000f3fe608060405234801561001057600080fd5b50600436106100415760003560e01c806308884abb146100465780636fe15b44146100645780639a2cdc081461006e575b600080fd5b61004e61008c565b60405161005b919061044e565b60405180910390f35b61006c610117565b005b6100766101b2565b60405161008391906104eb565b60405180910390f35b60006100ef6040518060400160405280601181526020017f4c61737420746f20776176652077617320000000000000000000000000000000815250600160009054906101000a900473ffffffffffffffffffffffffffffffffffffffff16610296565b600160009054906101000a900473ffffffffffffffffffffffffffffffffffffffff16905090565b60016000808282546101299190610522565b9250508190555033600160006101000a81548173ffffffffffffffffffffffffffffffffffffffff021916908373ffffffffffffffffffffffffffffffffffffffff1602179055506101b06040518060400160405280600d81526020017f257320686173207761766564210000000000000000000000000000000000000081525033610296565b565b60006101f56040518060400160405280601781526020017f5765206861766520256420746f74616c20776176657321000000000000000000815250600054610332565b600054905090565b610293816040516024016102119190610469565b6040516020818303038152906040527f41304fac000000000000000000000000000000000000000000000000000000007bffffffffffffffffffffffffffffffffffffffffffffffffffffffff19166020820180517bffffffffffffffffffffffffffffffffffffffffffffffffffffffff83818316178352505050506103ce565b50565b61032e82826040516024016102ac92919061048b565b6040516020818303038152906040527f319af333000000000000000000000000000000000000000000000000000000007bffffffffffffffffffffffffffffffffffffffffffffffffffffffff19166020820180517bffffffffffffffffffffffffffffffffffffffffffffffffffffffff83818316178352505050506103ce565b5050565b6103ca82826040516024016103489291906104bb565b6040516020818303038152906040527f9710a9d0000000000000000000000000000000000000000000000000000000007bffffffffffffffffffffffffffffffffffffffffffffffffffffffff19166020820180517bffffffffffffffffffffffffffffffffffffffffffffffffffffffff83818316178352505050506103ce565b5050565b60008151905060006a636f6e736f6c652e6c6f679050602083016000808483855afa5050505050565b61040081610578565b82525050565b600061041182610506565b61041b8185610511565b935061042b8185602086016105b4565b61043481610616565b840191505092915050565b610448816105aa565b82525050565b600060208201905061046360008301846103f7565b92915050565b600060208201905081810360008301526104838184610406565b905092915050565b600060408201905081810360008301526104a58185610406565b90506104b460208301846103f7565b9392505050565b600060408201905081810360008301526104d58185610406565b90506104e4602083018461043f565b9392505050565b6000602082019050610500600083018461043f565b92915050565b600081519050919050565b600082825260208201905092915050565b600061052d826105aa565b9150610538836105aa565b9250827fffffffffffffffffffffffffffffffffffffffffffffffffffffffffffffffff0382111561056d5761056c6105e7565b5b828201905092915050565b60006105838261058a565b9050919050565b600073ffffffffffffffffffffffffffffffffffffffff82169050919050565b6000819050919050565b60005b838110156105d25780820151818401526020810190506105b7565b838111156105e1576000848401525b50505050565b7f4e487b7100000000000000000000000000000000000000000000000000000000600052601160045260246000fd5b6000601f19601f830116905091905056fea264697066735822122088e0ff3337ca092ee23f16f33bee205f38754ded7910cf6f4b4210b3e1332aa264736f6c6343000800003357686174757070707070707070707070707070707070702c206d616b65207375726520796f75206472696e6b2077617465722069646b",
    "linkReferences": {},
    "deployedLinkReferences": {}
}